{
  "contractName": "CryptoUtils",
  "abi": [
    {
      "constant": true,
      "inputs": [],
      "name": "UNCOMPRESSED_PUBLIC_KEY_SIZE",
      "outputs": [
        {
          "name": "",
          "type": "uint8"
        }
      ],
      "payable": false,
      "stateMutability": "view",
      "type": "function",
      "signature": "0x6f3e954d"
    },
    {
      "constant": true,
      "inputs": [
        {
          "name": "_hash",
          "type": "bytes32"
        },
        {
          "name": "_signature",
          "type": "bytes"
        },
        {
          "name": "_address",
          "type": "address"
        }
      ],
      "name": "isSignatureValid",
      "outputs": [
        {
          "name": "",
          "type": "bool"
        }
      ],
      "payable": false,
      "stateMutability": "pure",
      "type": "function",
      "signature": "0x65a18acf"
    },
    {
      "constant": true,
      "inputs": [
        {
          "name": "_publicKey",
          "type": "bytes"
        }
      ],
      "name": "toAddress",
      "outputs": [
        {
          "name": "",
          "type": "address"
        }
      ],
      "payable": false,
      "stateMutability": "pure",
      "type": "function",
      "signature": "0x2d888869"
    },
    {
      "constant": true,
      "inputs": [
        {
          "name": "_proof",
          "type": "bytes32[]"
        },
        {
          "name": "_root",
          "type": "bytes32"
        },
        {
          "name": "_leaf",
          "type": "bytes"
        }
      ],
      "name": "isMerkleProofValid",
      "outputs": [
        {
          "name": "",
          "type": "bool"
        }
      ],
      "payable": false,
      "stateMutability": "pure",
      "type": "function",
      "signature": "0x6df6588e"
    },
    {
      "constant": true,
      "inputs": [
        {
          "name": "_proof",
          "type": "bytes32[]"
        },
        {
          "name": "_root",
          "type": "bytes32"
        },
        {
          "name": "_leafHash",
          "type": "bytes32"
        }
      ],
      "name": "isMerkleProofValid",
      "outputs": [
        {
          "name": "",
          "type": "bool"
        }
      ],
      "payable": false,
      "stateMutability": "pure",
      "type": "function",
      "signature": "0xab208d2e"
    }
  ],
  "bytecode": "0x610b35610030600b82828239805160001a6073146000811461002057610022565bfe5b5030600052607381538281f3007300000000000000000000000000000000000000003014608060405260043610610084576000357c0100000000000000000000000000000000000000000000000000000000900463ffffffff1680632d8888691461008957806365a18acf146100b95780636df6588e146100e95780636f3e954d14610119578063ab208d2e14610137575b600080fd5b6100a3600480360361009e91908101906108dc565b610167565b6040516100b09190610968565b60405180910390f35b6100d360048036036100ce9190810190610875565b6101ef565b6040516100e09190610983565b60405180910390f35b61010360048036036100fe91908101906107cd565b6102af565b6040516101109190610983565b60405180910390f35b610121610363565b60405161012e91906109e3565b60405180910390f35b610151600480360361014c9190810190610766565b610368565b60405161015e9190610983565b60405180910390f35b6000604060ff16825114151561018057600090506101ea565b816040518082805190602001908083835b6020831015156101b65780518252602082019150602081019050602083039250610191565b6001836020036101000a03801982511681845116808217855250505050505090500191505060405180910390206001900490505b919050565b600080600073ffffffffffffffffffffffffffffffffffffffff168373ffffffffffffffffffffffffffffffffffffffff16141561023057600091506102a7565b61023a8585610587565b9050600073ffffffffffffffffffffffffffffffffffffffff168173ffffffffffffffffffffffffffffffffffffffff16141580156102a457508273ffffffffffffffffffffffffffffffffffffffff168173ffffffffffffffffffffffffffffffffffffffff16145b91505b509392505050565b600061035a84846002856040518082805190602001908083835b6020831015156102ee57805182526020820191506020810190506020830392506102c9565b6001836020036101000a0380198251168184511680821785525050505050509050019150506020604051808303816000865af1158015610332573d6000803e3d6000fd5b5050506040513d601f19601f82011682018060405250610355919081019061084c565b610368565b90509392505050565b604081565b600080600080849250865191505b600082111561057057866001830381518110151561039057fe5b90602001906020020151905080600019168360001916101561048957600283826040516020018083600019166000191681526020018260001916600019168152602001925050506040516020818303038152906040526040518082805190602001908083835b60208310151561041b57805182526020820191506020810190506020830392506103f6565b6001836020036101000a0380198251168184511680821785525050505050509050019150506020604051808303816000865af115801561045f573d6000803e3d6000fd5b5050506040513d601f19601f82011682018060405250610482919081019061084c565b9250610562565b600281846040516020018083600019166000191681526020018260001916600019168152602001925050506040516020818303038152906040526040518082805190602001908083835b6020831015156104f857805182526020820191506020810190506020830392506104d3565b6001836020036101000a0380198251168184511680821785525050505050509050019150506020604051808303816000865af115801561053c573d6000803e3d6000fd5b5050506040513d601f19601f8201168201806040525061055f919081019061084c565b92505b818060019003925050610376565b856000191683600019161493505050509392505050565b600080600080604185511415156105a15760009350610646565b6020850151925060408501519150606085015160001a9050601b8160ff1610156105cc57601b810190505b601b8160ff16141580156105e45750601c8160ff1614155b156105f25760009350610646565b60018682858560405160008152602001604052604051610615949392919061099e565b60206040516020810390808403906000865af1158015610639573d6000803e3d6000fd5b5050506020604051035193505b50505092915050565b600061065b8235610ac2565b905092915050565b600082601f830112151561067657600080fd5b813561068961068482610a2b565b6109fe565b915081818352602084019350602081019050838560208402820111156106ae57600080fd5b60005b838110156106de57816106c488826106e8565b8452602084019350602083019250506001810190506106b1565b5050505092915050565b60006106f48235610ae2565b905092915050565b60006107088251610ae2565b905092915050565b600082601f830112151561072357600080fd5b813561073661073182610a53565b6109fe565b9150808252602083016020830185838301111561075257600080fd5b61075d838284610aec565b50505092915050565b60008060006060848603121561077b57600080fd5b600084013567ffffffffffffffff81111561079557600080fd5b6107a186828701610663565b93505060206107b2868287016106e8565b92505060406107c3868287016106e8565b9150509250925092565b6000806000606084860312156107e257600080fd5b600084013567ffffffffffffffff8111156107fc57600080fd5b61080886828701610663565b9350506020610819868287016106e8565b925050604084013567ffffffffffffffff81111561083657600080fd5b61084286828701610710565b9150509250925092565b60006020828403121561085e57600080fd5b600061086c848285016106fc565b91505092915050565b60008060006060848603121561088a57600080fd5b6000610898868287016106e8565b935050602084013567ffffffffffffffff8111156108b557600080fd5b6108c186828701610710565b92505060406108d28682870161064f565b9150509250925092565b6000602082840312156108ee57600080fd5b600082013567ffffffffffffffff81111561090857600080fd5b61091484828501610710565b91505092915050565b61092681610a7f565b82525050565b61093581610a9f565b82525050565b61094481610aab565b82525050565b61095381610ab5565b82525050565b61096281610ab5565b82525050565b600060208201905061097d600083018461091d565b92915050565b6000602082019050610998600083018461092c565b92915050565b60006080820190506109b3600083018761093b565b6109c0602083018661094a565b6109cd604083018561093b565b6109da606083018461093b565b95945050505050565b60006020820190506109f86000830184610959565b92915050565b6000604051905081810181811067ffffffffffffffff82111715610a2157600080fd5b8060405250919050565b600067ffffffffffffffff821115610a4257600080fd5b602082029050602081019050919050565b600067ffffffffffffffff821115610a6a57600080fd5b601f19601f8301169050602081019050919050565b600073ffffffffffffffffffffffffffffffffffffffff82169050919050565b60008115159050919050565b6000819050919050565b600060ff82169050919050565b600073ffffffffffffffffffffffffffffffffffffffff82169050919050565b6000819050919050565b828183376000838301525050505600a265627a7a72305820bc0de831b421e3d552a2267038f403dade9c68bc45814105ecb3925cc3cb39f46c6578706572696d656e74616cf50037",
  "compiler": {
    "name": "solc",
    "version": "0.4.24+commit.e67f0147.Emscripten.clang"
  },
  "schemaVersion": "3.0.0",
  "updatedAt": "2018-12-26T15:00:29.894Z",
  "devdoc": {
    "methods": {
      "isMerkleProofValid(bytes32[],bytes32,bytes)": {
        "details": "Verifies the Merkle proof for the existence of a specific data. Please not that that this implementation assumes that each pair of leaves and each pair of pre-images are sorted (see tests for examples of construction).",
        "params": {
          "_leaf": "bytes The data to check.",
          "_proof": "bytes32[] The Merkle proof containing sibling SHA256 hashes on the branch from the leaf to the root.",
          "_root": "bytes32 The Merkle root."
        }
      },
      "isMerkleProofValid(bytes32[],bytes32,bytes32)": {
        "details": "Verifies the Merkle proof for the existence of a specific data. Please not that that this implementation assumes that each pair of leaves and each pair of pre-images are sorted (see tests for examples of construction).",
        "params": {
          "_leafHash": "bytes32 The hash of the data to check.",
          "_proof": "bytes32[] The Merkle proof containing sibling SHA256 hashes on the branch from the leaf to the root.",
          "_root": "bytes32 The Merkle root."
        }
      },
      "isSignatureValid(bytes32,bytes,address)": {
        "details": "Verifies ECDSA signature of a given message hash.",
        "params": {
          "_address": "The public address of the signer (allegedly).",
          "_hash": "bytes32 The hash which is the signed message.",
          "_signature": "bytes The signature to verify."
        }
      },
      "toAddress(bytes)": {
        "details": "Converts a public key to an address.",
        "params": {
          "_publicKey": "bytes32 The uncompressed public key."
        }
      }
    },
    "title": "Cryptographic utilities."
  },
  "userdoc": {
    "methods": {}
  }
}